{
  "_format": "hh-sol-artifact-1",
  "contractName": "CrowdFunding",
  "sourceName": "contracts/CrowdFunding.sol",
  "abi": [
    {
      "inputs": [
        {
          "internalType": "uint256",
          "name": "",
          "type": "uint256"
        }
      ],
      "name": "campains",
      "outputs": [
        {
          "internalType": "address",
          "name": "owner",
          "type": "address"
        },
        {
          "internalType": "string",
          "name": "title",
          "type": "string"
        },
        {
          "internalType": "string",
          "name": "description",
          "type": "string"
        },
        {
          "internalType": "uint256",
          "name": "target",
          "type": "uint256"
        },
        {
          "internalType": "uint256",
          "name": "deadline",
          "type": "uint256"
        },
        {
          "internalType": "uint256",
          "name": "amountCollected",
          "type": "uint256"
        },
        {
          "internalType": "string",
          "name": "image",
          "type": "string"
        }
      ],
      "stateMutability": "view",
      "type": "function"
    },
    {
      "inputs": [
        {
          "internalType": "string",
          "name": "_a",
          "type": "string"
        },
        {
          "internalType": "string",
          "name": "_b",
          "type": "string"
        }
      ],
      "name": "compareStrings",
      "outputs": [
        {
          "internalType": "bool",
          "name": "",
          "type": "bool"
        }
      ],
      "stateMutability": "pure",
      "type": "function"
    },
    {
      "inputs": [
        {
          "internalType": "address",
          "name": "_owner",
          "type": "address"
        },
        {
          "internalType": "string",
          "name": "_title",
          "type": "string"
        },
        {
          "internalType": "string",
          "name": "_description",
          "type": "string"
        },
        {
          "internalType": "uint256",
          "name": "_target",
          "type": "uint256"
        },
        {
          "internalType": "uint256",
          "name": "_deadline",
          "type": "uint256"
        },
        {
          "internalType": "string",
          "name": "_image",
          "type": "string"
        }
      ],
      "name": "createCampaign",
      "outputs": [
        {
          "internalType": "uint256",
          "name": "",
          "type": "uint256"
        }
      ],
      "stateMutability": "nonpayable",
      "type": "function"
    },
    {
      "inputs": [
        {
          "internalType": "uint256",
          "name": "_id",
          "type": "uint256"
        }
      ],
      "name": "donateToCampaign",
      "outputs": [],
      "stateMutability": "payable",
      "type": "function"
    },
    {
      "inputs": [
        {
          "internalType": "string",
          "name": "_title",
          "type": "string"
        }
      ],
      "name": "findCampaignByTitle",
      "outputs": [
        {
          "components": [
            {
              "internalType": "address",
              "name": "owner",
              "type": "address"
            },
            {
              "internalType": "string",
              "name": "title",
              "type": "string"
            },
            {
              "internalType": "string",
              "name": "description",
              "type": "string"
            },
            {
              "internalType": "uint256",
              "name": "target",
              "type": "uint256"
            },
            {
              "internalType": "uint256",
              "name": "deadline",
              "type": "uint256"
            },
            {
              "internalType": "uint256",
              "name": "amountCollected",
              "type": "uint256"
            },
            {
              "internalType": "string",
              "name": "image",
              "type": "string"
            },
            {
              "internalType": "address[]",
              "name": "donators",
              "type": "address[]"
            },
            {
              "internalType": "uint256[]",
              "name": "donations",
              "type": "uint256[]"
            }
          ],
          "internalType": "struct CrowdFunding.Campaign",
          "name": "",
          "type": "tuple"
        }
      ],
      "stateMutability": "view",
      "type": "function"
    },
    {
      "inputs": [],
      "name": "getCampaigns",
      "outputs": [
        {
          "components": [
            {
              "internalType": "address",
              "name": "owner",
              "type": "address"
            },
            {
              "internalType": "string",
              "name": "title",
              "type": "string"
            },
            {
              "internalType": "string",
              "name": "description",
              "type": "string"
            },
            {
              "internalType": "uint256",
              "name": "target",
              "type": "uint256"
            },
            {
              "internalType": "uint256",
              "name": "deadline",
              "type": "uint256"
            },
            {
              "internalType": "uint256",
              "name": "amountCollected",
              "type": "uint256"
            },
            {
              "internalType": "string",
              "name": "image",
              "type": "string"
            },
            {
              "internalType": "address[]",
              "name": "donators",
              "type": "address[]"
            },
            {
              "internalType": "uint256[]",
              "name": "donations",
              "type": "uint256[]"
            }
          ],
          "internalType": "struct CrowdFunding.Campaign[]",
          "name": "",
          "type": "tuple[]"
        }
      ],
      "stateMutability": "view",
      "type": "function"
    },
    {
      "inputs": [
        {
          "internalType": "uint256",
          "name": "_id",
          "type": "uint256"
        }
      ],
      "name": "getDonators",
      "outputs": [
        {
          "internalType": "address[]",
          "name": "",
          "type": "address[]"
        },
        {
          "internalType": "uint256[]",
          "name": "",
          "type": "uint256[]"
        }
      ],
      "stateMutability": "view",
      "type": "function"
    },
    {
      "inputs": [],
      "name": "numberOfCampains",
      "outputs": [
        {
          "internalType": "uint256",
          "name": "",
          "type": "uint256"
        }
      ],
      "stateMutability": "view",
      "type": "function"
    }
  ],
  "bytecode": "0x6080604052600060015534801561001557600080fd5b506116ca806100256000396000f3fe60806040526004361061007a5760003560e01c80639943e3a11161004e5780639943e3a114610118578063a6b0363314610138578063a9d5cba31461015a578063bed34bba1461018d57600080fd5b8062f7403f1461007f5780630fa91fa9146100a857806342a4fda8146100d6578063437a049b146100eb575b600080fd5b34801561008b57600080fd5b5061009560015481565b6040519081526020015b60405180910390f35b3480156100b457600080fd5b506100c86100c33660046110c7565b6101bd565b60405161009f9291906110e0565b6100e96100e43660046110c7565b61028c565b005b3480156100f757600080fd5b5061010b610106366004611207565b610352565b60405161009f91906113ca565b34801561012457600080fd5b506100956101333660046113e4565b61092a565b34801561014457600080fd5b5061014d610a46565b60405161009f919061149d565b34801561016657600080fd5b5061017a6101753660046110c7565b610da3565b60405161009f97969594939291906114ff565b34801561019957600080fd5b506101ad6101a8366004611569565b610f80565b604051901515815260200161009f565b6000818152602081815260409182902060078101805484518185028101850190955280855260609485949293600801929091849183018282801561022a57602002820191906000526020600020905b81546001600160a01b0316815260019091019060200180831161020c575b505050505091508080548060200260200160405190810160405280929190818152602001828054801561027c57602002820191906000526020600020905b815481526020019060010190808311610268575b5050505050905091509150915091565b600081815260208181526040808320600781018054600180820183559186528486200180546001600160a01b0319163317905560088201805491820181558552928420349301839055805491519293909290916001600160a01b03169084908381818185875af1925050503d8060008114610323576040519150601f19603f3d011682016040523d82523d6000602084013e610328565b606091505b50509050801561034c578282600501600082825461034691906115e3565b90915550505b50505050565b61035a610fd9565b60005b600154811015610651576000818152602081815260408083208151610120810190925280546001600160a01b0316825260018101805492939192918401916103a4906115fb565b80601f01602080910402602001604051908101604052809291908181526020018280546103d0906115fb565b801561041d5780601f106103f25761010080835404028352916020019161041d565b820191906000526020600020905b81548152906001019060200180831161040057829003601f168201915b50505050508152602001600282018054610436906115fb565b80601f0160208091040260200160405190810160405280929190818152602001828054610462906115fb565b80156104af5780601f10610484576101008083540402835291602001916104af565b820191906000526020600020905b81548152906001019060200180831161049257829003601f168201915b505050505081526020016003820154815260200160048201548152602001600582015481526020016006820180546104e6906115fb565b80601f0160208091040260200160405190810160405280929190818152602001828054610512906115fb565b801561055f5780601f106105345761010080835404028352916020019161055f565b820191906000526020600020905b81548152906001019060200180831161054257829003601f168201915b50505050508152602001600782018054806020026020016040519081016040528092919081815260200182805480156105c157602002820191906000526020600020905b81546001600160a01b031681526001909101906020018083116105a3575b505050505081526020016008820180548060200260200160405190810160405280929190818152602001828054801561061957602002820191906000526020600020905b815481526020019060010190808311610605575b5050505050815250509050610632816020015185610f80565b1561063e579392505050565b508061064981611630565b91505061035d565b50600080600154600261066491906115e3565b815260208082019290925260409081016000208151610120810190925280546001600160a01b0316825260018101805492939192918401916106a5906115fb565b80601f01602080910402602001604051908101604052809291908181526020018280546106d1906115fb565b801561071e5780601f106106f35761010080835404028352916020019161071e565b820191906000526020600020905b81548152906001019060200180831161070157829003601f168201915b50505050508152602001600282018054610737906115fb565b80601f0160208091040260200160405190810160405280929190818152602001828054610763906115fb565b80156107b05780601f10610785576101008083540402835291602001916107b0565b820191906000526020600020905b81548152906001019060200180831161079357829003601f168201915b505050505081526020016003820154815260200160048201548152602001600582015481526020016006820180546107e7906115fb565b80601f0160208091040260200160405190810160405280929190818152602001828054610813906115fb565b80156108605780601f1061083557610100808354040283529160200191610860565b820191906000526020600020905b81548152906001019060200180831161084357829003601f168201915b50505050508152602001600782018054806020026020016040519081016040528092919081815260200182805480156108c257602002820191906000526020600020905b81546001600160a01b031681526001909101906020018083116108a4575b505050505081526020016008820180548060200260200160405190810160405280929190818152602001828054801561091a57602002820191906000526020600020905b815481526020019060010190808311610906575b5050505050815250509050919050565b6001546000908152602081905260408120600481015484116109a75760405162461bcd60e51b815260206004820152602c60248201527f54686520646561646c696e652073686f756c642062652061206461746520696e60448201526b103a343290333aba3ab9329760a11b606482015260840160405180910390fd5b80546001600160a01b0319166001600160a01b03891617815586516109d590600183019060208a019061102e565b5085516109eb906002830190602089019061102e565b506003810185905560048101849055600060058201558251610a16906006830190602086019061102e565b5060018054906000610a2783611630565b919050555060018054610a3a919061164b565b98975050505050505050565b6060600060015467ffffffffffffffff811115610a6557610a65611164565b604051908082528060200260200182016040528015610a9e57816020015b610a8b610fd9565b815260200190600190039081610a835790505b50905060005b600154811015610d9d57600081815260208181526040918290208251610120810190935280546001600160a01b0316835260018101805491939284929084019190610aee906115fb565b80601f0160208091040260200160405190810160405280929190818152602001828054610b1a906115fb565b8015610b675780601f10610b3c57610100808354040283529160200191610b67565b820191906000526020600020905b815481529060010190602001808311610b4a57829003601f168201915b50505050508152602001600282018054610b80906115fb565b80601f0160208091040260200160405190810160405280929190818152602001828054610bac906115fb565b8015610bf95780601f10610bce57610100808354040283529160200191610bf9565b820191906000526020600020905b815481529060010190602001808311610bdc57829003601f168201915b50505050508152602001600382015481526020016004820154815260200160058201548152602001600682018054610c30906115fb565b80601f0160208091040260200160405190810160405280929190818152602001828054610c5c906115fb565b8015610ca95780601f10610c7e57610100808354040283529160200191610ca9565b820191906000526020600020905b815481529060010190602001808311610c8c57829003601f168201915b5050505050815260200160078201805480602002602001604051908101604052809291908181526020018280548015610d0b57602002820191906000526020600020905b81546001600160a01b03168152600190910190602001808311610ced575b5050505050815260200160088201805480602002602001604051908101604052809291908181526020018280548015610d6357602002820191906000526020600020905b815481526020019060010190808311610d4f575b505050505081525050838381518110610d7e57610d7e611662565b6020026020010181905250508080610d9590611630565b915050610aa4565b50919050565b600060208190529081526040902080546001820180546001600160a01b039092169291610dcf906115fb565b80601f0160208091040260200160405190810160405280929190818152602001828054610dfb906115fb565b8015610e485780601f10610e1d57610100808354040283529160200191610e48565b820191906000526020600020905b815481529060010190602001808311610e2b57829003601f168201915b505050505090806002018054610e5d906115fb565b80601f0160208091040260200160405190810160405280929190818152602001828054610e89906115fb565b8015610ed65780601f10610eab57610100808354040283529160200191610ed6565b820191906000526020600020905b815481529060010190602001808311610eb957829003601f168201915b505050505090806003015490806004015490806005015490806006018054610efd906115fb565b80601f0160208091040260200160405190810160405280929190818152602001828054610f29906115fb565b8015610f765780601f10610f4b57610100808354040283529160200191610f76565b820191906000526020600020905b815481529060010190602001808311610f5957829003601f168201915b5050505050905087565b600081604051602001610f939190611678565b6040516020818303038152906040528051906020012083604051602001610fba9190611678565b6040516020818303038152906040528051906020012014905092915050565b60405180610120016040528060006001600160a01b0316815260200160608152602001606081526020016000815260200160008152602001600081526020016060815260200160608152602001606081525090565b82805461103a906115fb565b90600052602060002090601f01602090048101928261105c57600085556110a2565b82601f1061107557805160ff19168380011785556110a2565b828001600101855582156110a2579182015b828111156110a2578251825591602001919060010190611087565b506110ae9291506110b2565b5090565b5b808211156110ae57600081556001016110b3565b6000602082840312156110d957600080fd5b5035919050565b604080825283519082018190526000906020906060840190828701845b828110156111225781516001600160a01b0316845292840192908401906001016110fd565b5050508381038285015284518082528583019183019060005b818110156111575783518352928401929184019160010161113b565b5090979650505050505050565b634e487b7160e01b600052604160045260246000fd5b600082601f83011261118b57600080fd5b813567ffffffffffffffff808211156111a6576111a6611164565b604051601f8301601f19908116603f011681019082821181831017156111ce576111ce611164565b816040528381528660208588010111156111e757600080fd5b836020870160208301376000602085830101528094505050505092915050565b60006020828403121561121957600080fd5b813567ffffffffffffffff81111561123057600080fd5b61123c8482850161117a565b949350505050565b60005b8381101561125f578181015183820152602001611247565b8381111561034c5750506000910152565b60008151808452611288816020860160208601611244565b601f01601f19169290920160200192915050565b600081518084526020808501945080840160005b838110156112d55781516001600160a01b0316875295820195908201906001016112b0565b509495945050505050565b600081518084526020808501945080840160005b838110156112d5578151875295820195908201906001016112f4565b80516001600160a01b031682526000610120602083015181602086015261133982860182611270565b915050604083015184820360408601526113538282611270565b915050606083015160608501526080830151608085015260a083015160a085015260c083015184820360c086015261138b8282611270565b91505060e083015184820360e08601526113a5828261129c565b91505061010080840151858303828701526113c083826112e0565b9695505050505050565b6020815260006113dd6020830184611310565b9392505050565b60008060008060008060c087890312156113fd57600080fd5b86356001600160a01b038116811461141457600080fd5b9550602087013567ffffffffffffffff8082111561143157600080fd5b61143d8a838b0161117a565b9650604089013591508082111561145357600080fd5b61145f8a838b0161117a565b9550606089013594506080890135935060a089013591508082111561148357600080fd5b5061149089828a0161117a565b9150509295509295509295565b6000602080830181845280855180835260408601915060408160051b870101925083870160005b828110156114f257603f198886030184526114e0858351611310565b945092850192908501906001016114c4565b5092979650505050505050565b6001600160a01b038816815260e06020820181905260009061152390830189611270565b82810360408401526115358189611270565b90508660608401528560808401528460a084015282810360c084015261155b8185611270565b9a9950505050505050505050565b6000806040838503121561157c57600080fd5b823567ffffffffffffffff8082111561159457600080fd5b6115a08683870161117a565b935060208501359150808211156115b657600080fd5b506115c38582860161117a565b9150509250929050565b634e487b7160e01b600052601160045260246000fd5b600082198211156115f6576115f66115cd565b500190565b600181811c9082168061160f57607f821691505b60208210811415610d9d57634e487b7160e01b600052602260045260246000fd5b6000600019821415611644576116446115cd565b5060010190565b60008282101561165d5761165d6115cd565b500390565b634e487b7160e01b600052603260045260246000fd5b6000825161168a818460208701611244565b919091019291505056fea264697066735822122098520dd287a0fe56b8a2e0a5048c359b73731c35a30878feed0bcabfb03e579c64736f6c63430008090033",
  "linkReferences": {},
  "deployedLinkReferences": {}
}